{
  "_format": "hh-sol-artifact-1",
  "contractName": "MyEpicGame",
  "sourceName": "contracts/MyEpicGame.sol",
  "abi": [
    {
      "inputs": [
        {
          "internalType": "string[]",
          "name": "characterNames",
          "type": "string[]"
        },
        {
          "internalType": "string[]",
          "name": "characterImageURIs",
          "type": "string[]"
        },
        {
          "internalType": "uint256[]",
          "name": "characterHp",
          "type": "uint256[]"
        },
        {
          "internalType": "uint256[]",
          "name": "characterAttackDmg",
          "type": "uint256[]"
        },
        {
          "internalType": "string",
          "name": "bossName",
          "type": "string"
        },
        {
          "internalType": "string",
          "name": "bossImageURI",
          "type": "string"
        },
        {
          "internalType": "uint256",
          "name": "bossHp",
          "type": "uint256"
        },
        {
          "internalType": "uint256",
          "name": "bossAttackDamage",
          "type": "uint256"
        }
      ],
      "stateMutability": "nonpayable",
      "type": "constructor"
    },
    {
      "anonymous": false,
      "inputs": [
        {
          "indexed": true,
          "internalType": "address",
          "name": "owner",
          "type": "address"
        },
        {
          "indexed": true,
          "internalType": "address",
          "name": "approved",
          "type": "address"
        },
        {
          "indexed": true,
          "internalType": "uint256",
          "name": "tokenId",
          "type": "uint256"
        }
      ],
      "name": "Approval",
      "type": "event"
    },
    {
      "anonymous": false,
      "inputs": [
        {
          "indexed": true,
          "internalType": "address",
          "name": "owner",
          "type": "address"
        },
        {
          "indexed": true,
          "internalType": "address",
          "name": "operator",
          "type": "address"
        },
        {
          "indexed": false,
          "internalType": "bool",
          "name": "approved",
          "type": "bool"
        }
      ],
      "name": "ApprovalForAll",
      "type": "event"
    },
    {
      "anonymous": false,
      "inputs": [
        {
          "indexed": false,
          "internalType": "uint256",
          "name": "newBossHp",
          "type": "uint256"
        },
        {
          "indexed": false,
          "internalType": "uint256",
          "name": "newPlayerHp",
          "type": "uint256"
        }
      ],
      "name": "AttackComplete",
      "type": "event"
    },
    {
      "anonymous": false,
      "inputs": [
        {
          "indexed": false,
          "internalType": "address",
          "name": "sender",
          "type": "address"
        },
        {
          "indexed": false,
          "internalType": "uint256",
          "name": "tokenId",
          "type": "uint256"
        },
        {
          "indexed": false,
          "internalType": "uint256",
          "name": "characterIndex",
          "type": "uint256"
        }
      ],
      "name": "CharacterNFTMinted",
      "type": "event"
    },
    {
      "anonymous": false,
      "inputs": [
        {
          "indexed": true,
          "internalType": "address",
          "name": "from",
          "type": "address"
        },
        {
          "indexed": true,
          "internalType": "address",
          "name": "to",
          "type": "address"
        },
        {
          "indexed": true,
          "internalType": "uint256",
          "name": "tokenId",
          "type": "uint256"
        }
      ],
      "name": "Transfer",
      "type": "event"
    },
    {
      "inputs": [
        {
          "internalType": "address",
          "name": "to",
          "type": "address"
        },
        {
          "internalType": "uint256",
          "name": "tokenId",
          "type": "uint256"
        }
      ],
      "name": "approve",
      "outputs": [],
      "stateMutability": "nonpayable",
      "type": "function"
    },
    {
      "inputs": [],
      "name": "attackBoss",
      "outputs": [],
      "stateMutability": "nonpayable",
      "type": "function"
    },
    {
      "inputs": [
        {
          "internalType": "address",
          "name": "owner",
          "type": "address"
        }
      ],
      "name": "balanceOf",
      "outputs": [
        {
          "internalType": "uint256",
          "name": "",
          "type": "uint256"
        }
      ],
      "stateMutability": "view",
      "type": "function"
    },
    {
      "inputs": [],
      "name": "bigBoss",
      "outputs": [
        {
          "internalType": "string",
          "name": "name",
          "type": "string"
        },
        {
          "internalType": "string",
          "name": "imageURI",
          "type": "string"
        },
        {
          "internalType": "uint256",
          "name": "hp",
          "type": "uint256"
        },
        {
          "internalType": "uint256",
          "name": "maxHp",
          "type": "uint256"
        },
        {
          "internalType": "uint256",
          "name": "attackDamage",
          "type": "uint256"
        }
      ],
      "stateMutability": "view",
      "type": "function"
    },
    {
      "inputs": [],
      "name": "checkIFUserHasNFT",
      "outputs": [
        {
          "components": [
            {
              "internalType": "uint256",
              "name": "characterIndex",
              "type": "uint256"
            },
            {
              "internalType": "string",
              "name": "name",
              "type": "string"
            },
            {
              "internalType": "string",
              "name": "imageURI",
              "type": "string"
            },
            {
              "internalType": "uint256",
              "name": "hp",
              "type": "uint256"
            },
            {
              "internalType": "uint256",
              "name": "maxHp",
              "type": "uint256"
            },
            {
              "internalType": "uint256",
              "name": "attackDamage",
              "type": "uint256"
            }
          ],
          "internalType": "struct MyEpicGame.CharacterAttributes",
          "name": "",
          "type": "tuple"
        }
      ],
      "stateMutability": "view",
      "type": "function"
    },
    {
      "inputs": [],
      "name": "getAllDefaultCharacters",
      "outputs": [
        {
          "components": [
            {
              "internalType": "uint256",
              "name": "characterIndex",
              "type": "uint256"
            },
            {
              "internalType": "string",
              "name": "name",
              "type": "string"
            },
            {
              "internalType": "string",
              "name": "imageURI",
              "type": "string"
            },
            {
              "internalType": "uint256",
              "name": "hp",
              "type": "uint256"
            },
            {
              "internalType": "uint256",
              "name": "maxHp",
              "type": "uint256"
            },
            {
              "internalType": "uint256",
              "name": "attackDamage",
              "type": "uint256"
            }
          ],
          "internalType": "struct MyEpicGame.CharacterAttributes[]",
          "name": "",
          "type": "tuple[]"
        }
      ],
      "stateMutability": "view",
      "type": "function"
    },
    {
      "inputs": [
        {
          "internalType": "uint256",
          "name": "tokenId",
          "type": "uint256"
        }
      ],
      "name": "getApproved",
      "outputs": [
        {
          "internalType": "address",
          "name": "",
          "type": "address"
        }
      ],
      "stateMutability": "view",
      "type": "function"
    },
    {
      "inputs": [],
      "name": "getBigBoss",
      "outputs": [
        {
          "components": [
            {
              "internalType": "string",
              "name": "name",
              "type": "string"
            },
            {
              "internalType": "string",
              "name": "imageURI",
              "type": "string"
            },
            {
              "internalType": "uint256",
              "name": "hp",
              "type": "uint256"
            },
            {
              "internalType": "uint256",
              "name": "maxHp",
              "type": "uint256"
            },
            {
              "internalType": "uint256",
              "name": "attackDamage",
              "type": "uint256"
            }
          ],
          "internalType": "struct MyEpicGame.BigBoss",
          "name": "",
          "type": "tuple"
        }
      ],
      "stateMutability": "view",
      "type": "function"
    },
    {
      "inputs": [
        {
          "internalType": "address",
          "name": "owner",
          "type": "address"
        },
        {
          "internalType": "address",
          "name": "operator",
          "type": "address"
        }
      ],
      "name": "isApprovedForAll",
      "outputs": [
        {
          "internalType": "bool",
          "name": "",
          "type": "bool"
        }
      ],
      "stateMutability": "view",
      "type": "function"
    },
    {
      "inputs": [
        {
          "internalType": "uint256",
          "name": "_characterIndex",
          "type": "uint256"
        }
      ],
      "name": "mintCharacterNFT",
      "outputs": [],
      "stateMutability": "nonpayable",
      "type": "function"
    },
    {
      "inputs": [],
      "name": "name",
      "outputs": [
        {
          "internalType": "string",
          "name": "",
          "type": "string"
        }
      ],
      "stateMutability": "view",
      "type": "function"
    },
    {
      "inputs": [
        {
          "internalType": "uint256",
          "name": "",
          "type": "uint256"
        }
      ],
      "name": "nftHolderAttributes",
      "outputs": [
        {
          "internalType": "uint256",
          "name": "characterIndex",
          "type": "uint256"
        },
        {
          "internalType": "string",
          "name": "name",
          "type": "string"
        },
        {
          "internalType": "string",
          "name": "imageURI",
          "type": "string"
        },
        {
          "internalType": "uint256",
          "name": "hp",
          "type": "uint256"
        },
        {
          "internalType": "uint256",
          "name": "maxHp",
          "type": "uint256"
        },
        {
          "internalType": "uint256",
          "name": "attackDamage",
          "type": "uint256"
        }
      ],
      "stateMutability": "view",
      "type": "function"
    },
    {
      "inputs": [
        {
          "internalType": "address",
          "name": "",
          "type": "address"
        }
      ],
      "name": "nftHolders",
      "outputs": [
        {
          "internalType": "uint256",
          "name": "",
          "type": "uint256"
        }
      ],
      "stateMutability": "view",
      "type": "function"
    },
    {
      "inputs": [
        {
          "internalType": "uint256",
          "name": "tokenId",
          "type": "uint256"
        }
      ],
      "name": "ownerOf",
      "outputs": [
        {
          "internalType": "address",
          "name": "",
          "type": "address"
        }
      ],
      "stateMutability": "view",
      "type": "function"
    },
    {
      "inputs": [
        {
          "internalType": "address",
          "name": "from",
          "type": "address"
        },
        {
          "internalType": "address",
          "name": "to",
          "type": "address"
        },
        {
          "internalType": "uint256",
          "name": "tokenId",
          "type": "uint256"
        }
      ],
      "name": "safeTransferFrom",
      "outputs": [],
      "stateMutability": "nonpayable",
      "type": "function"
    },
    {
      "inputs": [
        {
          "internalType": "address",
          "name": "from",
          "type": "address"
        },
        {
          "internalType": "address",
          "name": "to",
          "type": "address"
        },
        {
          "internalType": "uint256",
          "name": "tokenId",
          "type": "uint256"
        },
        {
          "internalType": "bytes",
          "name": "_data",
          "type": "bytes"
        }
      ],
      "name": "safeTransferFrom",
      "outputs": [],
      "stateMutability": "nonpayable",
      "type": "function"
    },
    {
      "inputs": [
        {
          "internalType": "address",
          "name": "operator",
          "type": "address"
        },
        {
          "internalType": "bool",
          "name": "approved",
          "type": "bool"
        }
      ],
      "name": "setApprovalForAll",
      "outputs": [],
      "stateMutability": "nonpayable",
      "type": "function"
    },
    {
      "inputs": [
        {
          "internalType": "bytes4",
          "name": "interfaceId",
          "type": "bytes4"
        }
      ],
      "name": "supportsInterface",
      "outputs": [
        {
          "internalType": "bool",
          "name": "",
          "type": "bool"
        }
      ],
      "stateMutability": "view",
      "type": "function"
    },
    {
      "inputs": [],
      "name": "symbol",
      "outputs": [
        {
          "internalType": "string",
          "name": "",
          "type": "string"
        }
      ],
      "stateMutability": "view",
      "type": "function"
    },
    {
      "inputs": [
        {
          "internalType": "uint256",
          "name": "_tokenId",
          "type": "uint256"
        }
      ],
      "name": "tokenURI",
      "outputs": [
        {
          "internalType": "string",
          "name": "",
          "type": "string"
        }
      ],
      "stateMutability": "view",
      "type": "function"
    },
    {
      "inputs": [
        {
          "internalType": "address",
          "name": "from",
          "type": "address"
        },
        {
          "internalType": "address",
          "name": "to",
          "type": "address"
        },
        {
          "internalType": "uint256",
          "name": "tokenId",
          "type": "uint256"
        }
      ],
      "name": "transferFrom",
      "outputs": [],
      "stateMutability": "nonpayable",
      "type": "function"
    }
  ],
  "bytecode": "0x60806040523480156200001157600080fd5b506040516200588238038062005882833981810160405281019062000037919062000a84565b6040518060400160405280600981526020017f4d4f524f5f53484f5000000000000000000000000000000000000000000000008152506040518060400160405280600481526020017f4d4f524f000000000000000000000000000000000000000000000000000000008152508160009080519060200190620000bb929190620007ec565b508060019080519060200190620000d4929190620007ec565b50505060005b8851811015620004f257600c6040518060c001604052808381526020018b848151811062000131577f4e487b7100000000000000000000000000000000000000000000000000000000600052603260045260246000fd5b602002602001015181526020018a848151811062000178577f4e487b7100000000000000000000000000000000000000000000000000000000600052603260045260246000fd5b60200260200101518152602001898481518110620001bf577f4e487b7100000000000000000000000000000000000000000000000000000000600052603260045260246000fd5b6020026020010151815260200189848151811062000206577f4e487b7100000000000000000000000000000000000000000000000000000000600052603260045260246000fd5b602002602001015181526020018884815181106200024d577f4e487b7100000000000000000000000000000000000000000000000000000000600052603260045260246000fd5b60200260200101518152509080600181540180825580915050600190039060005260206000209060060201600090919091909150600082015181600001556020820151816001019080519060200190620002a9929190620007ec565b506040820151816002019080519060200190620002c8929190620007ec565b50606082015181600301556080820151816004015560a0820151816005015550506000600c828154811062000326577f4e487b7100000000000000000000000000000000000000000000000000000000600052603260045260246000fd5b90600052602060002090600602016040518060c0016040529081600082015481526020016001820180546200035b9062000daa565b80601f0160208091040260200160405190810160405280929190818152602001828054620003899062000daa565b8015620003da5780601f10620003ae57610100808354040283529160200191620003da565b820191906000526020600020905b815481529060010190602001808311620003bc57829003601f168201915b50505050508152602001600282018054620003f59062000daa565b80601f0160208091040260200160405190810160405280929190818152602001828054620004239062000daa565b8015620004745780601f10620004485761010080835404028352916020019162000474565b820191906000526020600020905b8154815290600101906020018083116200045657829003601f168201915b5050505050815260200160038201548152602001600482015481526020016005820154815250509050620004db60405180606001604052806025815260200162005833602591398260200151836060015184604001516200070160201b62001bd51760201c565b508080620004e99062000e16565b915050620000da565b506200050a600b620007ad60201b62001c771760201c565b6040518060a00160405280858152602001848152602001838152602001838152602001828152506006600082015181600001908051906020019062000551929190620007ec565b50602082015181600101908051906020019062000570929190620007ec565b50604082015181600201556060820151816003015560808201518160040155905050620006f36040518060600160405280602a815260200162005858602a913960066000018054620005c29062000daa565b80601f0160208091040260200160405190810160405280929190818152602001828054620005f09062000daa565b8015620006415780601f10620006155761010080835404028352916020019162000641565b820191906000526020600020905b8154815290600101906020018083116200062357829003601f168201915b5050505050600660020154600660010180546200065e9062000daa565b80601f01602080910402602001604051908101604052809291908181526020018280546200068c9062000daa565b8015620006dd5780601f10620006b157610100808354040283529160200191620006dd565b820191906000526020600020905b815481529060010190602001808311620006bf57829003601f168201915b50505050506200070160201b62001bd51760201c565b505050505050505062000f1c565b620007a7848484846040516024016200071e949392919062000c2f565b6040516020818303038152906040527f8d142cdd000000000000000000000000000000000000000000000000000000007bffffffffffffffffffffffffffffffffffffffffffffffffffffffff19166020820180517bffffffffffffffffffffffffffffffffffffffffffffffffffffffff8381831617835250505050620007c360201b60201c565b50505050565b6001816000016000828254019250508190555050565b60008151905060006a636f6e736f6c652e6c6f679050602083016000808483855afa5050505050565b828054620007fa9062000daa565b90600052602060002090601f0160209004810192826200081e57600085556200086a565b82601f106200083957805160ff19168380011785556200086a565b828001600101855582156200086a579182015b82811115620008695782518255916020019190600101906200084c565b5b5090506200087991906200087d565b5090565b5b80821115620008985760008160009055506001016200087e565b5090565b6000620008b3620008ad8462000cba565b62000c91565b90508083825260208201905082856020860282011115620008d357600080fd5b60005b858110156200092257815167ffffffffffffffff811115620008f757600080fd5b80860162000906898262000a40565b85526020850194506020840193505050600181019050620008d6565b5050509392505050565b6000620009436200093d8462000ce9565b62000c91565b905080838252602082019050828560208602820111156200096357600080fd5b60005b858110156200099757816200097c888262000a6d565b84526020840193506020830192505060018101905062000966565b5050509392505050565b6000620009b8620009b28462000d18565b62000c91565b905082815260208101848484011115620009d157600080fd5b620009de84828562000d74565b509392505050565b600082601f830112620009f857600080fd5b815162000a0a8482602086016200089c565b91505092915050565b600082601f83011262000a2557600080fd5b815162000a378482602086016200092c565b91505092915050565b600082601f83011262000a5257600080fd5b815162000a64848260208601620009a1565b91505092915050565b60008151905062000a7e8162000f02565b92915050565b600080600080600080600080610100898b03121562000aa257600080fd5b600089015167ffffffffffffffff81111562000abd57600080fd5b62000acb8b828c01620009e6565b985050602089015167ffffffffffffffff81111562000ae957600080fd5b62000af78b828c01620009e6565b975050604089015167ffffffffffffffff81111562000b1557600080fd5b62000b238b828c0162000a13565b965050606089015167ffffffffffffffff81111562000b4157600080fd5b62000b4f8b828c0162000a13565b955050608089015167ffffffffffffffff81111562000b6d57600080fd5b62000b7b8b828c0162000a40565b94505060a089015167ffffffffffffffff81111562000b9957600080fd5b62000ba78b828c0162000a40565b93505060c062000bba8b828c0162000a6d565b92505060e062000bcd8b828c0162000a6d565b9150509295985092959890939650565b600062000bea8262000d4e565b62000bf6818562000d59565b935062000c0881856020860162000d74565b62000c138162000ef1565b840191505092915050565b62000c298162000d6a565b82525050565b6000608082019050818103600083015262000c4b818762000bdd565b9050818103602083015262000c61818662000bdd565b905062000c72604083018562000c1e565b818103606083015262000c86818462000bdd565b905095945050505050565b600062000c9d62000cb0565b905062000cab828262000de0565b919050565b6000604051905090565b600067ffffffffffffffff82111562000cd85762000cd762000ec2565b5b602082029050602081019050919050565b600067ffffffffffffffff82111562000d075762000d0662000ec2565b5b602082029050602081019050919050565b600067ffffffffffffffff82111562000d365762000d3562000ec2565b5b62000d418262000ef1565b9050602081019050919050565b600081519050919050565b600082825260208201905092915050565b6000819050919050565b60005b8381101562000d9457808201518184015260208101905062000d77565b8381111562000da4576000848401525b50505050565b6000600282049050600182168062000dc357607f821691505b6020821081141562000dda5762000dd962000e93565b5b50919050565b62000deb8262000ef1565b810181811067ffffffffffffffff8211171562000e0d5762000e0c62000ec2565b5b80604052505050565b600062000e238262000d6a565b91507fffffffffffffffffffffffffffffffffffffffffffffffffffffffffffffffff82141562000e595762000e5862000e64565b5b600182019050919050565b7f4e487b7100000000000000000000000000000000000000000000000000000000600052601160045260246000fd5b7f4e487b7100000000000000000000000000000000000000000000000000000000600052602260045260246000fd5b7f4e487b7100000000000000000000000000000000000000000000000000000000600052604160045260246000fd5b6000601f19601f8301169050919050565b62000f0d8162000d6a565b811462000f1957600080fd5b50565b6149078062000f2c6000396000f3fe608060405234801561001057600080fd5b50600436106101375760003560e01c80637df124a1116100b8578063b88d4fde1161007c578063b88d4fde1461036b578063b953084e14610387578063c87b56dd146103a5578063d4f24c5b146103d5578063e985e9c5146103df578063f8b81ef71461040f57610137565b80637df124a1146102aa57806395d89b41146102da57806398da4c95146102f8578063a22cb4651461032d578063a9c326791461034957610137565b806323b872dd116100ff57806323b872dd146101f457806342842e0e1461021057806344acb9781461022c5780636352211e1461024a57806370a082311461027a57610137565b806301ffc9a71461013c5780630665f9611461016c57806306fdde031461018a578063081812fc146101a8578063095ea7b3146101d8575b600080fd5b61015660048036038101906101519190613048565b61042b565b60405161016391906138ad565b60405180910390f35b61017461050d565b6040516101819190613c46565b60405180910390f35b610192610669565b60405161019f91906138c8565b60405180910390f35b6101c260048036038101906101bd919061309a565b6106fb565b6040516101cf91906137ed565b60405180910390f35b6101f260048036038101906101ed919061300c565b610780565b005b61020e60048036038101906102099190612f06565b610898565b005b61022a60048036038101906102259190612f06565b6108f8565b005b610234610918565b6040516102419190613c68565b60405180910390f35b610264600480360381019061025f919061309a565b610af0565b60405161027191906137ed565b60405180910390f35b610294600480360381019061028f9190612ea1565b610ba2565b6040516102a19190613c8a565b60405180910390f35b6102c460048036038101906102bf9190612ea1565b610c5a565b6040516102d19190613c8a565b60405180910390f35b6102e2610c72565b6040516102ef91906138c8565b60405180910390f35b610312600480360381019061030d919061309a565b610d04565b60405161032496959493929190613ca5565b60405180910390f35b61034760048036038101906103429190612fd0565b610e50565b005b610351610e66565b604051610362959493929190613997565b60405180910390f35b61038560048036038101906103809190612f55565b610f9a565b005b61038f610ffc565b60405161039c919061388b565b60405180910390f35b6103bf60048036038101906103ba919061309a565b6111a7565b6040516103cc91906138c8565b60405180910390f35b6103dd6113c2565b005b6103f960048036038101906103f49190612eca565b61174d565b60405161040691906138ad565b60405180910390f35b6104296004803603810190610424919061309a565b6117e1565b005b60007f80ac58cd000000000000000000000000000000000000000000000000000000007bffffffffffffffffffffffffffffffffffffffffffffffffffffffff1916827bffffffffffffffffffffffffffffffffffffffffffffffffffffffff191614806104f657507f5b5e139f000000000000000000000000000000000000000000000000000000007bffffffffffffffffffffffffffffffffffffffffffffffffffffffff1916827bffffffffffffffffffffffffffffffffffffffffffffffffffffffff1916145b80610506575061050582611c8d565b5b9050919050565b610515612cc8565b60066040518060a001604052908160008201805461053290613feb565b80601f016020809104026020016040519081016040528092919081815260200182805461055e90613feb565b80156105ab5780601f10610580576101008083540402835291602001916105ab565b820191906000526020600020905b81548152906001019060200180831161058e57829003601f168201915b505050505081526020016001820180546105c490613feb565b80601f01602080910402602001604051908101604052809291908181526020018280546105f090613feb565b801561063d5780601f106106125761010080835404028352916020019161063d565b820191906000526020600020905b81548152906001019060200180831161062057829003601f168201915b505050505081526020016002820154815260200160038201548152602001600482015481525050905090565b60606000805461067890613feb565b80601f01602080910402602001604051908101604052809291908181526020018280546106a490613feb565b80156106f15780601f106106c6576101008083540402835291602001916106f1565b820191906000526020600020905b8154815290600101906020018083116106d457829003601f168201915b5050505050905090565b600061070682611cf7565b610745576040517f08c379a000000000000000000000000000000000000000000000000000000000815260040161073c90613ba6565b60405180910390fd5b6004600083815260200190815260200160002060009054906101000a900473ffffffffffffffffffffffffffffffffffffffff169050919050565b600061078b82610af0565b90508073ffffffffffffffffffffffffffffffffffffffff168373ffffffffffffffffffffffffffffffffffffffff1614156107fc576040517f08c379a00000000000000000000000000000000000000000000000000000000081526004016107f390613bc6565b60405180910390fd5b8073ffffffffffffffffffffffffffffffffffffffff1661081b611d63565b73ffffffffffffffffffffffffffffffffffffffff16148061084a575061084981610844611d63565b61174d565b5b610889576040517f08c379a000000000000000000000000000000000000000000000000000000000815260040161088090613b26565b60405180910390fd5b6108938383611d6b565b505050565b6108a96108a3611d63565b82611e24565b6108e8576040517f08c379a00000000000000000000000000000000000000000000000000000000081526004016108df90613c06565b60405180910390fd5b6108f3838383611f02565b505050565b61091383838360405180602001604052806000815250610f9a565b505050565b610920612cf7565b6000600e60003373ffffffffffffffffffffffffffffffffffffffff1673ffffffffffffffffffffffffffffffffffffffff1681526020019081526020016000205490506000811115610adf57600d60008281526020019081526020016000206040518060c0016040529081600082015481526020016001820180546109a590613feb565b80601f01602080910402602001604051908101604052809291908181526020018280546109d190613feb565b8015610a1e5780601f106109f357610100808354040283529160200191610a1e565b820191906000526020600020905b815481529060010190602001808311610a0157829003601f168201915b50505050508152602001600282018054610a3790613feb565b80601f0160208091040260200160405190810160405280929190818152602001828054610a6390613feb565b8015610ab05780601f10610a8557610100808354040283529160200191610ab0565b820191906000526020600020905b815481529060010190602001808311610a9357829003601f168201915b505050505081526020016003820154815260200160048201548152602001600582015481525050915050610aed565b610ae7612cf7565b80925050505b90565b6000806002600084815260200190815260200160002060009054906101000a900473ffffffffffffffffffffffffffffffffffffffff169050600073ffffffffffffffffffffffffffffffffffffffff168173ffffffffffffffffffffffffffffffffffffffff161415610b99576040517f08c379a0000000000000000000000000000000000000000000000000000000008152600401610b9090613b66565b60405180910390fd5b80915050919050565b60008073ffffffffffffffffffffffffffffffffffffffff168273ffffffffffffffffffffffffffffffffffffffff161415610c13576040517f08c379a0000000000000000000000000000000000000000000000000000000008152600401610c0a90613b46565b60405180910390fd5b600360008373ffffffffffffffffffffffffffffffffffffffff1673ffffffffffffffffffffffffffffffffffffffff168152602001908152602001600020549050919050565b600e6020528060005260406000206000915090505481565b606060018054610c8190613feb565b80601f0160208091040260200160405190810160405280929190818152602001828054610cad90613feb565b8015610cfa5780601f10610ccf57610100808354040283529160200191610cfa565b820191906000526020600020905b815481529060010190602001808311610cdd57829003601f168201915b5050505050905090565b600d602052806000526040600020600091509050806000015490806001018054610d2d90613feb565b80601f0160208091040260200160405190810160405280929190818152602001828054610d5990613feb565b8015610da65780601f10610d7b57610100808354040283529160200191610da6565b820191906000526020600020905b815481529060010190602001808311610d8957829003601f168201915b505050505090806002018054610dbb90613feb565b80601f0160208091040260200160405190810160405280929190818152602001828054610de790613feb565b8015610e345780601f10610e0957610100808354040283529160200191610e34565b820191906000526020600020905b815481529060010190602001808311610e1757829003601f168201915b5050505050908060030154908060040154908060050154905086565b610e62610e5b611d63565b8383612169565b5050565b6006806000018054610e7790613feb565b80601f0160208091040260200160405190810160405280929190818152602001828054610ea390613feb565b8015610ef05780601f10610ec557610100808354040283529160200191610ef0565b820191906000526020600020905b815481529060010190602001808311610ed357829003601f168201915b505050505090806001018054610f0590613feb565b80601f0160208091040260200160405190810160405280929190818152602001828054610f3190613feb565b8015610f7e5780601f10610f5357610100808354040283529160200191610f7e565b820191906000526020600020905b815481529060010190602001808311610f6157829003601f168201915b5050505050908060020154908060030154908060040154905085565b610fab610fa5611d63565b83611e24565b610fea576040517f08c379a0000000000000000000000000000000000000000000000000000000008152600401610fe190613c06565b60405180910390fd5b610ff6848484846122d6565b50505050565b6060600c805480602002602001604051908101604052809291908181526020016000905b8282101561119e57838290600052602060002090600602016040518060c00160405290816000820154815260200160018201805461105d90613feb565b80601f016020809104026020016040519081016040528092919081815260200182805461108990613feb565b80156110d65780601f106110ab576101008083540402835291602001916110d6565b820191906000526020600020905b8154815290600101906020018083116110b957829003601f168201915b505050505081526020016002820180546110ef90613feb565b80601f016020809104026020016040519081016040528092919081815260200182805461111b90613feb565b80156111685780601f1061113d57610100808354040283529160200191611168565b820191906000526020600020905b81548152906001019060200180831161114b57829003601f168201915b50505050508152602001600382015481526020016004820154815260200160058201548152505081526020019060010190611020565b50505050905090565b60606000600d60008481526020019081526020016000206040518060c0016040529081600082015481526020016001820180546111e390613feb565b80601f016020809104026020016040519081016040528092919081815260200182805461120f90613feb565b801561125c5780601f106112315761010080835404028352916020019161125c565b820191906000526020600020905b81548152906001019060200180831161123f57829003601f168201915b5050505050815260200160028201805461127590613feb565b80601f01602080910402602001604051908101604052809291908181526020018280546112a190613feb565b80156112ee5780601f106112c3576101008083540402835291602001916112ee565b820191906000526020600020905b8154815290600101906020018083116112d157829003601f168201915b505050505081526020016003820154815260200160048201548152602001600582015481525050905060006113268260600151612332565b905060006113378360800151612332565b905060006113488460a00151612332565b9050600061138e856020015161135d89612332565b876040015187878760405160200161137a96959493929190613726565b6040516020818303038152906040526124df565b90506000816040516020016113a391906137cb565b6040516020818303038152906040529050809650505050505050919050565b6000600e60003373ffffffffffffffffffffffffffffffffffffffff1673ffffffffffffffffffffffffffffffffffffffff1681526020019081526020016000205490506000600d600083815260200190815260200160002090506114d56040518060600160405280603c8152602001614896603c913982600101805461144890613feb565b80601f016020809104026020016040519081016040528092919081815260200182805461147490613feb565b80156114c15780601f10611496576101008083540402835291602001916114c1565b820191906000526020600020905b8154815290600101906020018083116114a457829003601f168201915b50505050508360030154846005015461269d565b6115ad6040518060400160405280601b81526020017f426f73732025732068617320257320485020616e6420257320414400000000008152506006600001805461151e90613feb565b80601f016020809104026020016040519081016040528092919081815260200182805461154a90613feb565b80156115975780601f1061156c57610100808354040283529160200191611597565b820191906000526020600020905b81548152906001019060200180831161157a57829003601f168201915b505050505060066002015460066004015461269d565b60008160030154116115f4576040517f08c379a00000000000000000000000000000000000000000000000000000000081526004016115eb90613be6565b60405180910390fd5b60006006600201541161163c576040517f08c379a000000000000000000000000000000000000000000000000000000000815260040161163390613c26565b60405180910390fd5b8060050154600660020154101561165d57600060066002018190555061167c565b80600501546006600201546116729190613f01565b6006600201819055505b6006600401548160030154101561169c57600081600301819055506116ba565b60066004015481600301546116b19190613f01565b81600301819055505b6116e160405180606001604052806025815260200161481b6025913960066002015461273f565b61170760405180606001604052806028815260200161484060289139826003015461273f565b7f838ab28464562786a6c4ab2311964b82fa60bd9b14aa7e856af1f3f18d41a4146006600201548260030154604051611741929190613d14565b60405180910390a15050565b6000600560008473ffffffffffffffffffffffffffffffffffffffff1673ffffffffffffffffffffffffffffffffffffffff16815260200190815260200160002060008373ffffffffffffffffffffffffffffffffffffffff1673ffffffffffffffffffffffffffffffffffffffff16815260200190815260200160002060009054906101000a900460ff16905092915050565b60006117ed600b6127db565b90506117f933826127e9565b6040518060c00160405280838152602001600c8481548110611844577f4e487b7100000000000000000000000000000000000000000000000000000000600052603260045260246000fd5b9060005260206000209060060201600101805461186090613feb565b80601f016020809104026020016040519081016040528092919081815260200182805461188c90613feb565b80156118d95780601f106118ae576101008083540402835291602001916118d9565b820191906000526020600020905b8154815290600101906020018083116118bc57829003601f168201915b50505050508152602001600c848154811061191d577f4e487b7100000000000000000000000000000000000000000000000000000000600052603260045260246000fd5b9060005260206000209060060201600201805461193990613feb565b80601f016020809104026020016040519081016040528092919081815260200182805461196590613feb565b80156119b25780601f10611987576101008083540402835291602001916119b2565b820191906000526020600020905b81548152906001019060200180831161199557829003601f168201915b50505050508152602001600c84815481106119f6577f4e487b7100000000000000000000000000000000000000000000000000000000600052603260045260246000fd5b9060005260206000209060060201600301548152602001600c8481548110611a47577f4e487b7100000000000000000000000000000000000000000000000000000000600052603260045260246000fd5b9060005260206000209060060201600401548152602001600c8481548110611a98577f4e487b7100000000000000000000000000000000000000000000000000000000600052603260045260246000fd5b906000526020600020906006020160050154815250600d6000838152602001908152602001600020600082015181600001556020820151816001019080519060200190611ae6929190612d2d565b506040820151816002019080519060200190611b03929190612d2d565b50606082015181600301556080820151816004015560a08201518160050155905050611b486040518060600160405280602e8152602001614868602e91398284612807565b80600e60003373ffffffffffffffffffffffffffffffffffffffff1673ffffffffffffffffffffffffffffffffffffffff16815260200190815260200160002081905550611b96600b611c77565b7f4bc303fd457a97b4691b9af582ce71868a3d258638c8d4f8c60988a0f0bfb8cd338284604051611bc993929190613854565b60405180910390a15050565b611c7184848484604051602401611bef94939291906138ea565b6040516020818303038152906040527f8d142cdd000000000000000000000000000000000000000000000000000000007bffffffffffffffffffffffffffffffffffffffffffffffffffffffff19166020820180517bffffffffffffffffffffffffffffffffffffffffffffffffffffffff83818316178352505050506128a6565b50505050565b6001816000016000828254019250508190555050565b60007f01ffc9a7000000000000000000000000000000000000000000000000000000007bffffffffffffffffffffffffffffffffffffffffffffffffffffffff1916827bffffffffffffffffffffffffffffffffffffffffffffffffffffffff1916149050919050565b60008073ffffffffffffffffffffffffffffffffffffffff166002600084815260200190815260200160002060009054906101000a900473ffffffffffffffffffffffffffffffffffffffff1673ffffffffffffffffffffffffffffffffffffffff1614159050919050565b600033905090565b816004600083815260200190815260200160002060006101000a81548173ffffffffffffffffffffffffffffffffffffffff021916908373ffffffffffffffffffffffffffffffffffffffff160217905550808273ffffffffffffffffffffffffffffffffffffffff16611dde83610af0565b73ffffffffffffffffffffffffffffffffffffffff167f8c5be1e5ebec7d5bd14f71427d1e84f3dd0314c0f7b2291e5b200ac8c7c3b92560405160405180910390a45050565b6000611e2f82611cf7565b611e6e576040517f08c379a0000000000000000000000000000000000000000000000000000000008152600401611e6590613b06565b60405180910390fd5b6000611e7983610af0565b90508073ffffffffffffffffffffffffffffffffffffffff168473ffffffffffffffffffffffffffffffffffffffff161480611ebb5750611eba818561174d565b5b80611ef957508373ffffffffffffffffffffffffffffffffffffffff16611ee1846106fb565b73ffffffffffffffffffffffffffffffffffffffff16145b91505092915050565b8273ffffffffffffffffffffffffffffffffffffffff16611f2282610af0565b73ffffffffffffffffffffffffffffffffffffffff1614611f78576040517f08c379a0000000000000000000000000000000000000000000000000000000008152600401611f6f90613a86565b60405180910390fd5b600073ffffffffffffffffffffffffffffffffffffffff168273ffffffffffffffffffffffffffffffffffffffff161415611fe8576040517f08c379a0000000000000000000000000000000000000000000000000000000008152600401611fdf90613ac6565b60405180910390fd5b611ff38383836128cf565b611ffe600082611d6b565b6001600360008573ffffffffffffffffffffffffffffffffffffffff1673ffffffffffffffffffffffffffffffffffffffff168152602001908152602001600020600082825461204e9190613f01565b925050819055506001600360008473ffffffffffffffffffffffffffffffffffffffff1673ffffffffffffffffffffffffffffffffffffffff16815260200190815260200160002060008282546120a59190613e20565b92505081905550816002600083815260200190815260200160002060006101000a81548173ffffffffffffffffffffffffffffffffffffffff021916908373ffffffffffffffffffffffffffffffffffffffff160217905550808273ffffffffffffffffffffffffffffffffffffffff168473ffffffffffffffffffffffffffffffffffffffff167fddf252ad1be2c89b69c2b068fc378daa952ba7f163c4a11628f55a4df523b3ef60405160405180910390a46121648383836128d4565b505050565b8173ffffffffffffffffffffffffffffffffffffffff168373ffffffffffffffffffffffffffffffffffffffff1614156121d8576040517f08c379a00000000000000000000000000000000000000000000000000000000081526004016121cf90613ae6565b60405180910390fd5b80600560008573ffffffffffffffffffffffffffffffffffffffff1673ffffffffffffffffffffffffffffffffffffffff16815260200190815260200160002060008473ffffffffffffffffffffffffffffffffffffffff1673ffffffffffffffffffffffffffffffffffffffff16815260200190815260200160002060006101000a81548160ff0219169083151502179055508173ffffffffffffffffffffffffffffffffffffffff168373ffffffffffffffffffffffffffffffffffffffff167f17307eab39ab6107e8899845ad3d59bd9653f200f220920489ca2b5937696c31836040516122c991906138ad565b60405180910390a3505050565b6122e1848484611f02565b6122ed848484846128d9565b61232c576040517f08c379a000000000000000000000000000000000000000000000000000000000815260040161232390613a66565b60405180910390fd5b50505050565b6060600082141561237a576040518060400160405280600181526020017f300000000000000000000000000000000000000000000000000000000000000081525090506124da565b600082905060005b600082146123ac5780806123959061404e565b915050600a826123a59190613e76565b9150612382565b60008167ffffffffffffffff8111156123ee577f4e487b7100000000000000000000000000000000000000000000000000000000600052604160045260246000fd5b6040519080825280601f01601f1916602001820160405280156124205781602001600182028036833780820191505090505b5090505b600085146124d3576001826124399190613f01565b9150600a856124489190614097565b60306124549190613e20565b60f81b818381518110612490577f4e487b7100000000000000000000000000000000000000000000000000000000600052603260045260246000fd5b60200101907effffffffffffffffffffffffffffffffffffffffffffffffffffffffffffff1916908160001a905350600a856124cc9190613e76565b9450612424565b8093505050505b919050565b606060008251905060008114156125085760405180602001604052806000815250915050612698565b600060036002836125199190613e20565b6125239190613e76565b600461252f9190613ea7565b905060006020826125409190613e20565b67ffffffffffffffff81111561257f577f4e487b7100000000000000000000000000000000000000000000000000000000600052604160045260246000fd5b6040519080825280601f01601f1916602001820160405280156125b15781602001600182028036833780820191505090505b50905060006040518060600160405280604081526020016147db604091399050600181016020830160005b868110156126555760038101905062ffffff818a015116603f8160121c168401518060081b905060ff603f83600c1c1686015116810190508060081b905060ff603f8360061c1686015116810190508060081b905060ff603f831686015116810190508060e01b905080845260048401935050506125dc565b50600386066001811461266f576002811461267f5761268a565b613d3d60f01b600283035261268a565b603d60f81b60018303525b508484525050819450505050505b919050565b612739848484846040516024016126b79493929190613944565b6040516020818303038152906040527fd5cf17d0000000000000000000000000000000000000000000000000000000007bffffffffffffffffffffffffffffffffffffffffffffffffffffffff19166020820180517bffffffffffffffffffffffffffffffffffffffffffffffffffffffff83818316178352505050506128a6565b50505050565b6127d782826040516024016127559291906139f8565b6040516020818303038152906040527f9710a9d0000000000000000000000000000000000000000000000000000000007bffffffffffffffffffffffffffffffffffffffffffffffffffffffff19166020820180517bffffffffffffffffffffffffffffffffffffffffffffffffffffffff83818316178352505050506128a6565b5050565b600081600001549050919050565b612803828260405180602001604052806000815250612a70565b5050565b6128a183838360405160240161281f93929190613a28565b6040516020818303038152906040527f969cdd03000000000000000000000000000000000000000000000000000000007bffffffffffffffffffffffffffffffffffffffffffffffffffffffff19166020820180517bffffffffffffffffffffffffffffffffffffffffffffffffffffffff83818316178352505050506128a6565b505050565b60008151905060006a636f6e736f6c652e6c6f679050602083016000808483855afa5050505050565b505050565b505050565b60006128fa8473ffffffffffffffffffffffffffffffffffffffff16612acb565b15612a63578373ffffffffffffffffffffffffffffffffffffffff1663150b7a02612923611d63565b8786866040518563ffffffff1660e01b81526004016129459493929190613808565b602060405180830381600087803b15801561295f57600080fd5b505af192505050801561299057506040513d601f19601f8201168201806040525081019061298d9190613071565b60015b612a13573d80600081146129c0576040519150601f19603f3d011682016040523d82523d6000602084013e6129c5565b606091505b50600081511415612a0b576040517f08c379a0000000000000000000000000000000000000000000000000000000008152600401612a0290613a66565b60405180910390fd5b805181602001fd5b63150b7a0260e01b7bffffffffffffffffffffffffffffffffffffffffffffffffffffffff1916817bffffffffffffffffffffffffffffffffffffffffffffffffffffffff191614915050612a68565b600190505b949350505050565b612a7a8383612aee565b612a8760008484846128d9565b612ac6576040517f08c379a0000000000000000000000000000000000000000000000000000000008152600401612abd90613a66565b60405180910390fd5b505050565b6000808273ffffffffffffffffffffffffffffffffffffffff163b119050919050565b600073ffffffffffffffffffffffffffffffffffffffff168273ffffffffffffffffffffffffffffffffffffffff161415612b5e576040517f08c379a0000000000000000000000000000000000000000000000000000000008152600401612b5590613b86565b60405180910390fd5b612b6781611cf7565b15612ba7576040517f08c379a0000000000000000000000000000000000000000000000000000000008152600401612b9e90613aa6565b60405180910390fd5b612bb3600083836128cf565b6001600360008473ffffffffffffffffffffffffffffffffffffffff1673ffffffffffffffffffffffffffffffffffffffff1681526020019081526020016000206000828254612c039190613e20565b92505081905550816002600083815260200190815260200160002060006101000a81548173ffffffffffffffffffffffffffffffffffffffff021916908373ffffffffffffffffffffffffffffffffffffffff160217905550808273ffffffffffffffffffffffffffffffffffffffff16600073ffffffffffffffffffffffffffffffffffffffff167fddf252ad1be2c89b69c2b068fc378daa952ba7f163c4a11628f55a4df523b3ef60405160405180910390a4612cc4600083836128d4565b5050565b6040518060a0016040528060608152602001606081526020016000815260200160008152602001600081525090565b6040518060c001604052806000815260200160608152602001606081526020016000815260200160008152602001600081525090565b828054612d3990613feb565b90600052602060002090601f016020900481019282612d5b5760008555612da2565b82601f10612d7457805160ff1916838001178555612da2565b82800160010185558215612da2579182015b82811115612da1578251825591602001919060010190612d86565b5b509050612daf9190612db3565b5090565b5b80821115612dcc576000816000905550600101612db4565b5090565b6000612de3612dde84613d62565b613d3d565b905082815260208101848484011115612dfb57600080fd5b612e06848285613fa9565b509392505050565b600081359050612e1d8161477e565b92915050565b600081359050612e3281614795565b92915050565b600081359050612e47816147ac565b92915050565b600081519050612e5c816147ac565b92915050565b600082601f830112612e7357600080fd5b8135612e83848260208601612dd0565b91505092915050565b600081359050612e9b816147c3565b92915050565b600060208284031215612eb357600080fd5b6000612ec184828501612e0e565b91505092915050565b60008060408385031215612edd57600080fd5b6000612eeb85828601612e0e565b9250506020612efc85828601612e0e565b9150509250929050565b600080600060608486031215612f1b57600080fd5b6000612f2986828701612e0e565b9350506020612f3a86828701612e0e565b9250506040612f4b86828701612e8c565b9150509250925092565b60008060008060808587031215612f6b57600080fd5b6000612f7987828801612e0e565b9450506020612f8a87828801612e0e565b9350506040612f9b87828801612e8c565b925050606085013567ffffffffffffffff811115612fb857600080fd5b612fc487828801612e62565b91505092959194509250565b60008060408385031215612fe357600080fd5b6000612ff185828601612e0e565b925050602061300285828601612e23565b9150509250929050565b6000806040838503121561301f57600080fd5b600061302d85828601612e0e565b925050602061303e85828601612e8c565b9150509250929050565b60006020828403121561305a57600080fd5b600061306884828501612e38565b91505092915050565b60006020828403121561308357600080fd5b600061309184828501612e4d565b91505092915050565b6000602082840312156130ac57600080fd5b60006130ba84828501612e8c565b91505092915050565b60006130cf83836135e8565b905092915050565b6130e081613f35565b82525050565b60006130f182613da3565b6130fb8185613dd1565b93508360208202850161310d85613d93565b8060005b85811015613149578484038952815161312a85826130c3565b945061313583613dc4565b925060208a01995050600181019050613111565b50829750879550505050505092915050565b61316481613f47565b82525050565b600061317582613dae565b61317f8185613de2565b935061318f818560208601613fb8565b61319881614184565b840191505092915050565b60006131ae82613db9565b6131b88185613df3565b93506131c8818560208601613fb8565b6131d181614184565b840191505092915050565b60006131e782613db9565b6131f18185613e04565b9350613201818560208601613fb8565b61320a81614184565b840191505092915050565b600061322082613db9565b61322a8185613e15565b935061323a818560208601613fb8565b80840191505092915050565b6000613253603283613e04565b915061325e82614195565b604082019050919050565b6000613276602583613e04565b9150613281826141e4565b604082019050919050565b6000613299601c83613e04565b91506132a482614233565b602082019050919050565b60006132bc602a83613e15565b91506132c78261425c565b602a82019050919050565b60006132df600e83613e15565b91506132ea826142ab565b600e82019050919050565b6000613302602483613e04565b915061330d826142d4565b604082019050919050565b6000613325601983613e04565b915061333082614323565b602082019050919050565b6000613348602c83613e04565b91506133538261434c565b604082019050919050565b600061336b603883613e04565b91506133768261439b565b604082019050919050565b600061338e602a83613e04565b9150613399826143ea565b604082019050919050565b60006133b1602983613e04565b91506133bc82614439565b604082019050919050565b60006133d4602083613e04565b91506133df82614488565b602082019050919050565b60006133f7600383613e15565b9150613402826144b1565b600382019050919050565b600061341a602c83613e04565b9150613425826144da565b604082019050919050565b600061343d603983613e15565b915061344882614529565b603982019050919050565b6000613460600a83613e15565b915061346b82614578565b600a82019050919050565b6000613483602183613e04565b915061348e826145a1565b604082019050919050565b60006134a6601d83613e15565b91506134b1826145f0565b601d82019050919050565b60006134c9602d83613e04565b91506134d482614619565b604082019050919050565b60006134ec603183613e04565b91506134f782614668565b604082019050919050565b600061350f600a83613e15565b915061351a826146b7565b600a82019050919050565b6000613532602883613e04565b915061353d826146e0565b604082019050919050565b6000613555603183613e15565b91506135608261472f565b603182019050919050565b600060a083016000830151848203600086015261358882826131a3565b915050602083015184820360208601526135a282826131a3565b91505060408301516135b76040860182613708565b5060608301516135ca6060860182613708565b5060808301516135dd6080860182613708565b508091505092915050565b600060c0830160008301516136006000860182613708565b506020830151848203602086015261361882826131a3565b9150506040830151848203604086015261363282826131a3565b91505060608301516136476060860182613708565b50608083015161365a6080860182613708565b5060a083015161366d60a0860182613708565b508091505092915050565b600060c0830160008301516136906000860182613708565b50602083015184820360208601526136a882826131a3565b915050604083015184820360408601526136c282826131a3565b91505060608301516136d76060860182613708565b5060808301516136ea6080860182613708565b5060a08301516136fd60a0860182613708565b508091505092915050565b61371181613f9f565b82525050565b61372081613f9f565b82525050565b600061373182613453565b915061373d8289613215565b915061374882613502565b91506137548288613215565b915061375f82613548565b915061376b8287613215565b915061377682613430565b91506137828286613215565b915061378d826132d2565b91506137998285613215565b91506137a4826132af565b91506137b08284613215565b91506137bb826133ea565b9150819050979650505050505050565b60006137d682613499565b91506137e28284613215565b915081905092915050565b600060208201905061380260008301846130d7565b92915050565b600060808201905061381d60008301876130d7565b61382a60208301866130d7565b6138376040830185613717565b8181036060830152613849818461316a565b905095945050505050565b600060608201905061386960008301866130d7565b6138766020830185613717565b6138836040830184613717565b949350505050565b600060208201905081810360008301526138a581846130e6565b905092915050565b60006020820190506138c2600083018461315b565b92915050565b600060208201905081810360008301526138e281846131dc565b905092915050565b6000608082019050818103600083015261390481876131dc565b9050818103602083015261391881866131dc565b90506139276040830185613717565b818103606083015261393981846131dc565b905095945050505050565b6000608082019050818103600083015261395e81876131dc565b9050818103602083015261397281866131dc565b90506139816040830185613717565b61398e6060830184613717565b95945050505050565b600060a08201905081810360008301526139b181886131dc565b905081810360208301526139c581876131dc565b90506139d46040830186613717565b6139e16060830185613717565b6139ee6080830184613717565b9695505050505050565b60006040820190508181036000830152613a1281856131dc565b9050613a216020830184613717565b9392505050565b60006060820190508181036000830152613a4281866131dc565b9050613a516020830185613717565b613a5e6040830184613717565b949350505050565b60006020820190508181036000830152613a7f81613246565b9050919050565b60006020820190508181036000830152613a9f81613269565b9050919050565b60006020820190508181036000830152613abf8161328c565b9050919050565b60006020820190508181036000830152613adf816132f5565b9050919050565b60006020820190508181036000830152613aff81613318565b9050919050565b60006020820190508181036000830152613b1f8161333b565b9050919050565b60006020820190508181036000830152613b3f8161335e565b9050919050565b60006020820190508181036000830152613b5f81613381565b9050919050565b60006020820190508181036000830152613b7f816133a4565b9050919050565b60006020820190508181036000830152613b9f816133c7565b9050919050565b60006020820190508181036000830152613bbf8161340d565b9050919050565b60006020820190508181036000830152613bdf81613476565b9050919050565b60006020820190508181036000830152613bff816134bc565b9050919050565b60006020820190508181036000830152613c1f816134df565b9050919050565b60006020820190508181036000830152613c3f81613525565b9050919050565b60006020820190508181036000830152613c60818461356b565b905092915050565b60006020820190508181036000830152613c828184613678565b905092915050565b6000602082019050613c9f6000830184613717565b92915050565b600060c082019050613cba6000830189613717565b8181036020830152613ccc81886131dc565b90508181036040830152613ce081876131dc565b9050613cef6060830186613717565b613cfc6080830185613717565b613d0960a0830184613717565b979650505050505050565b6000604082019050613d296000830185613717565b613d366020830184613717565b9392505050565b6000613d47613d58565b9050613d53828261401d565b919050565b6000604051905090565b600067ffffffffffffffff821115613d7d57613d7c614155565b5b613d8682614184565b9050602081019050919050565b6000819050602082019050919050565b600081519050919050565b600081519050919050565b600081519050919050565b6000602082019050919050565b600082825260208201905092915050565b600082825260208201905092915050565b600082825260208201905092915050565b600082825260208201905092915050565b600081905092915050565b6000613e2b82613f9f565b9150613e3683613f9f565b9250827fffffffffffffffffffffffffffffffffffffffffffffffffffffffffffffffff03821115613e6b57613e6a6140c8565b5b828201905092915050565b6000613e8182613f9f565b9150613e8c83613f9f565b925082613e9c57613e9b6140f7565b5b828204905092915050565b6000613eb282613f9f565b9150613ebd83613f9f565b9250817fffffffffffffffffffffffffffffffffffffffffffffffffffffffffffffffff0483118215151615613ef657613ef56140c8565b5b828202905092915050565b6000613f0c82613f9f565b9150613f1783613f9f565b925082821015613f2a57613f296140c8565b5b828203905092915050565b6000613f4082613f7f565b9050919050565b60008115159050919050565b60007fffffffff0000000000000000000000000000000000000000000000000000000082169050919050565b600073ffffffffffffffffffffffffffffffffffffffff82169050919050565b6000819050919050565b82818337600083830152505050565b60005b83811015613fd6578082015181840152602081019050613fbb565b83811115613fe5576000848401525b50505050565b6000600282049050600182168061400357607f821691505b6020821081141561401757614016614126565b5b50919050565b61402682614184565b810181811067ffffffffffffffff8211171561404557614044614155565b5b80604052505050565b600061405982613f9f565b91507fffffffffffffffffffffffffffffffffffffffffffffffffffffffffffffffff82141561408c5761408b6140c8565b5b600182019050919050565b60006140a282613f9f565b91506140ad83613f9f565b9250826140bd576140bc6140f7565b5b828206905092915050565b7f4e487b7100000000000000000000000000000000000000000000000000000000600052601160045260246000fd5b7f4e487b7100000000000000000000000000000000000000000000000000000000600052601260045260246000fd5b7f4e487b7100000000000000000000000000000000000000000000000000000000600052602260045260246000fd5b7f4e487b7100000000000000000000000000000000000000000000000000000000600052604160045260246000fd5b6000601f19601f8301169050919050565b7f4552433732313a207472616e7366657220746f206e6f6e20455243373231526560008201527f63656976657220696d706c656d656e7465720000000000000000000000000000602082015250565b7f4552433732313a207472616e736665722066726f6d20696e636f72726563742060008201527f6f776e6572000000000000000000000000000000000000000000000000000000602082015250565b7f4552433732313a20746f6b656e20616c7265616479206d696e74656400000000600082015250565b7f7d2c7b2274726169745f74797065223a202241747461636b2044616d6167652260008201527f2c2276616c7565223a2000000000000000000000000000000000000000000000602082015250565b7f2c20226d61785f76616c7565223a000000000000000000000000000000000000600082015250565b7f4552433732313a207472616e7366657220746f20746865207a65726f2061646460008201527f7265737300000000000000000000000000000000000000000000000000000000602082015250565b7f4552433732313a20617070726f766520746f2063616c6c657200000000000000600082015250565b7f4552433732313a206f70657261746f7220717565727920666f72206e6f6e657860008201527f697374656e7420746f6b656e0000000000000000000000000000000000000000602082015250565b7f4552433732313a20617070726f76652063616c6c6572206973206e6f74206f7760008201527f6e6572206e6f7220617070726f76656420666f7220616c6c0000000000000000602082015250565b7f4552433732313a2062616c616e636520717565727920666f7220746865207a6560008201527f726f206164647265737300000000000000000000000000000000000000000000602082015250565b7f4552433732313a206f776e657220717565727920666f72206e6f6e657869737460008201527f656e7420746f6b656e0000000000000000000000000000000000000000000000602082015250565b7f4552433732313a206d696e7420746f20746865207a65726f2061646472657373600082015250565b7f7d5d7d0000000000000000000000000000000000000000000000000000000000600082015250565b7f4552433732313a20617070726f76656420717565727920666f72206e6f6e657860008201527f697374656e7420746f6b656e0000000000000000000000000000000000000000602082015250565b7f222c2261747472696275746573223a5b7b202274726169745f74797065223a2060008201527f224865616c746820506f696e7473222c2276616c7565223a2000000000000000602082015250565b7f7b226e616d65223a202200000000000000000000000000000000000000000000600082015250565b7f4552433732313a20617070726f76616c20746f2063757272656e74206f776e6560008201527f7200000000000000000000000000000000000000000000000000000000000000602082015250565b7f646174613a6170706c69636174696f6e2f6a736f6e3b6261736536342c000000600082015250565b7f4572726f723a20636861726163746572206d757374206861766520487020746f60008201527f2061747461636b20626f73732e00000000000000000000000000000000000000602082015250565b7f4552433732313a207472616e736665722063616c6c6572206973206e6f74206f60008201527f776e6572206e6f7220617070726f766564000000000000000000000000000000602082015250565b7f202d2d4e465420233a2000000000000000000000000000000000000000000000600082015250565b7f4572726f723a20626f7373206d757374206861766520487020746f206174746160008201527f636b20626f73732e000000000000000000000000000000000000000000000000602082015250565b7f222c226465736372697074696f6e223a2022416e2065706963204e4654222c2060008201527f22696d616765223a2022697066733a2f2f000000000000000000000000000000602082015250565b61478781613f35565b811461479257600080fd5b50565b61479e81613f47565b81146147a957600080fd5b50565b6147b581613f53565b81146147c057600080fd5b50565b6147cc81613f9f565b81146147d757600080fd5b5056fe4142434445464748494a4b4c4d4e4f505152535455565758595a6162636465666768696a6b6c6d6e6f707172737475767778797a303132333435363738392b2f706c617965722061747461636b656420626f73732e204e657720626f73732068703a202573426f73732061747461636b656420706c617965722e204e657720706c617965722068703a2025730a4d696e746564204e465420772f20746f6b656e496420257320616e6420636861726163746572496e6465782025730a506c6179657220772f206368617261637465722025732061626f757420746f2061747461636b2e2048617320257320485020616e64202573204144a264697066735822122087242f75be673a747b9c6213cb6c2c59fa6b262a16ae5cf1c85ee4798b91bc2364736f6c63430008040033446f6e6520696e697469616c697a696e6720257320772f2048502025732c20696d67202573446f6e6520696e697469616c697a696e6720626f737320257320772f2048702025732c20696d67202573",
  "linkReferences": {},
  "deployedLinkReferences": {}
}